{
  "_format": "hh-sol-artifact-1",
  "contractName": "Lottery",
  "sourceName": "contracts/Lottery.sol",
  "abi": [
    {
      "inputs": [
        {
          "internalType": "uint256",
          "name": "_betPrice",
          "type": "uint256"
        },
        {
          "internalType": "uint256",
          "name": "_betFee",
          "type": "uint256"
        },
        {
          "internalType": "string",
          "name": "_tokenName",
          "type": "string"
        },
        {
          "internalType": "string",
          "name": "_tokenSymbol",
          "type": "string"
        }
      ],
      "stateMutability": "nonpayable",
      "type": "constructor"
    },
    {
      "anonymous": false,
      "inputs": [
        {
          "indexed": true,
          "internalType": "address",
          "name": "previousOwner",
          "type": "address"
        },
        {
          "indexed": true,
          "internalType": "address",
          "name": "newOwner",
          "type": "address"
        }
      ],
      "name": "OwnershipTransferred",
      "type": "event"
    },
    {
      "stateMutability": "nonpayable",
      "type": "fallback"
    },
    {
      "inputs": [
        {
          "internalType": "address",
          "name": "",
          "type": "address"
        }
      ],
      "name": "activeLotteryPlayers",
      "outputs": [
        {
          "internalType": "bool",
          "name": "",
          "type": "bool"
        }
      ],
      "stateMutability": "view",
      "type": "function"
    },
    {
      "inputs": [],
      "name": "bet",
      "outputs": [],
      "stateMutability": "nonpayable",
      "type": "function"
    },
    {
      "inputs": [],
      "name": "betFee",
      "outputs": [
        {
          "internalType": "uint256",
          "name": "",
          "type": "uint256"
        }
      ],
      "stateMutability": "view",
      "type": "function"
    },
    {
      "inputs": [],
      "name": "betPrice",
      "outputs": [
        {
          "internalType": "uint256",
          "name": "",
          "type": "uint256"
        }
      ],
      "stateMutability": "view",
      "type": "function"
    },
    {
      "inputs": [],
      "name": "collectFees",
      "outputs": [],
      "stateMutability": "nonpayable",
      "type": "function"
    },
    {
      "inputs": [],
      "name": "currentLotteryPayoutPool",
      "outputs": [
        {
          "internalType": "uint256",
          "name": "",
          "type": "uint256"
        }
      ],
      "stateMutability": "view",
      "type": "function"
    },
    {
      "inputs": [],
      "name": "endLottery",
      "outputs": [],
      "stateMutability": "nonpayable",
      "type": "function"
    },
    {
      "inputs": [],
      "name": "feeCollection",
      "outputs": [
        {
          "internalType": "uint256",
          "name": "",
          "type": "uint256"
        }
      ],
      "stateMutability": "view",
      "type": "function"
    },
    {
      "inputs": [
        {
          "internalType": "address",
          "name": "",
          "type": "address"
        }
      ],
      "name": "latestBurnAmount",
      "outputs": [
        {
          "internalType": "uint256",
          "name": "",
          "type": "uint256"
        }
      ],
      "stateMutability": "view",
      "type": "function"
    },
    {
      "inputs": [],
      "name": "latestLotteryWinner",
      "outputs": [
        {
          "internalType": "address",
          "name": "",
          "type": "address"
        }
      ],
      "stateMutability": "view",
      "type": "function"
    },
    {
      "inputs": [],
      "name": "lotteryClosingEpochInSeconds",
      "outputs": [
        {
          "internalType": "uint256",
          "name": "",
          "type": "uint256"
        }
      ],
      "stateMutability": "view",
      "type": "function"
    },
    {
      "inputs": [],
      "name": "lotteryOpen",
      "outputs": [
        {
          "internalType": "bool",
          "name": "",
          "type": "bool"
        }
      ],
      "stateMutability": "view",
      "type": "function"
    },
    {
      "inputs": [
        {
          "internalType": "uint256",
          "name": "",
          "type": "uint256"
        }
      ],
      "name": "lotteryPlayers",
      "outputs": [
        {
          "internalType": "address",
          "name": "",
          "type": "address"
        }
      ],
      "stateMutability": "view",
      "type": "function"
    },
    {
      "inputs": [],
      "name": "lotteryTxnToken",
      "outputs": [
        {
          "internalType": "contract LotteryToken",
          "name": "",
          "type": "address"
        }
      ],
      "stateMutability": "view",
      "type": "function"
    },
    {
      "inputs": [],
      "name": "owner",
      "outputs": [
        {
          "internalType": "address",
          "name": "",
          "type": "address"
        }
      ],
      "stateMutability": "view",
      "type": "function"
    },
    {
      "inputs": [],
      "name": "renounceOwnership",
      "outputs": [],
      "stateMutability": "nonpayable",
      "type": "function"
    },
    {
      "inputs": [],
      "name": "sellLotteryTokens",
      "outputs": [],
      "stateMutability": "payable",
      "type": "function"
    },
    {
      "inputs": [
        {
          "internalType": "uint256",
          "name": "_closingEpochInSeconds",
          "type": "uint256"
        },
        {
          "internalType": "uint256",
          "name": "_winningWithdrawBaseFee",
          "type": "uint256"
        }
      ],
      "name": "startLottery",
      "outputs": [],
      "stateMutability": "nonpayable",
      "type": "function"
    },
    {
      "inputs": [
        {
          "internalType": "uint256",
          "name": "_burnAmount",
          "type": "uint256"
        }
      ],
      "name": "trackLatestBurn",
      "outputs": [],
      "stateMutability": "nonpayable",
      "type": "function"
    },
    {
      "inputs": [
        {
          "internalType": "address",
          "name": "newOwner",
          "type": "address"
        }
      ],
      "name": "transferOwnership",
      "outputs": [],
      "stateMutability": "nonpayable",
      "type": "function"
    },
    {
      "inputs": [
        {
          "internalType": "address",
          "name": "",
          "type": "address"
        }
      ],
      "name": "winningStash",
      "outputs": [
        {
          "internalType": "uint256",
          "name": "",
          "type": "uint256"
        }
      ],
      "stateMutability": "view",
      "type": "function"
    },
    {
      "inputs": [],
      "name": "winningWithdrawBaseFee",
      "outputs": [
        {
          "internalType": "uint256",
          "name": "",
          "type": "uint256"
        }
      ],
      "stateMutability": "view",
      "type": "function"
    },
    {
      "inputs": [],
      "name": "withdrawLastBurnToEther",
      "outputs": [],
      "stateMutability": "nonpayable",
      "type": "function"
    },
    {
      "inputs": [
        {
          "internalType": "uint256",
          "name": "_calculatedWinningFee",
          "type": "uint256"
        }
      ],
      "name": "withdrawWinning",
      "outputs": [],
      "stateMutability": "nonpayable",
      "type": "function"
    },
    {
      "stateMutability": "payable",
      "type": "receive"
    }
  ],
  "bytecode": "0x60806040523480156200001157600080fd5b50604051620024b2380380620024b28339810160408190526200003491620001f6565b6200003f33620000cb565b600384905560048390553360009081526006602052604090819020805460ff19166001179055518290829062000075906200011b565b62000082929190620002a2565b604051809103906000f0801580156200009f573d6000803e3d6000fd5b50600580546001600160a01b0319166001600160a01b039290921691909117905550620002d492505050565b600080546001600160a01b038381166001600160a01b0319831681178455604051919092169283917f8be0079c531659141344cd1fd0a4f28419497f9722a3daafe3b4186f6b6457e09190a35050565b61107f806200143383390190565b634e487b7160e01b600052604160045260246000fd5b60005b838110156200015c57818101518382015260200162000142565b50506000910152565b600082601f8301126200017757600080fd5b81516001600160401b038082111562000194576200019462000129565b604051601f8301601f19908116603f01168101908282118183101715620001bf57620001bf62000129565b81604052838152866020858801011115620001d957600080fd5b620001ec8460208301602089016200013f565b9695505050505050565b600080600080608085870312156200020d57600080fd5b84516020860151604087015191955093506001600160401b03808211156200023457600080fd5b620002428883890162000165565b935060608701519150808211156200025957600080fd5b50620002688782880162000165565b91505092959194509250565b600081518084526200028e8160208601602086016200013f565b601f01601f19169290920160200192915050565b604081526000620002b7604083018562000274565b8281036020840152620002cb818562000274565b95945050505050565b61114f80620002e46000396000f3fe60806040526004361061014f5760003560e01c80638f2b5b2a116100b6578063d9b3c8751161006f578063d9b3c8751461038a578063e04ebc8c146103aa578063edbcfdf2146103ca578063f2fde38b146103e0578063f9b93a1d14610400578063fa4207321461042057610156565b80638f2b5b2a146102fa578063ab6c21ae14610310578063c60c4ae914610330578063c780d8fc1461034a578063c87965721461035f578063cfd8a1751461037457610156565b80636dce2e2c116101085780636dce2e2c146102315780636e8d445114610239578063715018a614610271578063752be00814610286578063841e6ce9146102c65780638da5cb5b146102dc57610156565b80630687a5cb1461016457806311610c25146101a45780631593a8c7146101b957806329ac818c146101ce57806357777227146101ee578063586def361461021b57610156565b3661015657005b34801561016257600080fd5b005b34801561017057600080fd5b5061019161017f366004610fb5565b600a6020526000908152604090205481565b6040519081526020015b60405180910390f35b3480156101b057600080fd5b50610162610436565b3480156101c557600080fd5b5061016261065c565b3480156101da57600080fd5b506101626101e9366004610fe5565b6107cb565b3480156101fa57600080fd5b50610191610209366004610fb5565b600f6020526000908152604090205481565b34801561022757600080fd5b5061019160015481565b610162610811565b34801561024557600080fd5b50600954610259906001600160a01b031681565b6040516001600160a01b03909116815260200161019b565b34801561027d57600080fd5b50610162610891565b34801561029257600080fd5b506102b66102a1366004610fb5565b60066020526000908152604090205460ff1681565b604051901515815260200161019b565b3480156102d257600080fd5b5061019160045481565b3480156102e857600080fd5b506000546001600160a01b0316610259565b34801561030657600080fd5b50610191600b5481565b34801561031c57600080fd5b5061016261032b366004610ffe565b6108a5565b34801561033c57600080fd5b506002546102b69060ff1681565b34801561035657600080fd5b5061016261097c565b34801561036b57600080fd5b50610162610a8e565b34801561038057600080fd5b5061019160035481565b34801561039657600080fd5b506101626103a5366004610fe5565b610b9f565b3480156103b657600080fd5b50600554610259906001600160a01b031681565b3480156103d657600080fd5b50610191600d5481565b3480156103ec57600080fd5b506101626103fb366004610fb5565b610e6b565b34801561040c57600080fd5b5061025961041b366004610fe5565b610ee1565b34801561042c57600080fd5b5061019160085481565b60025460ff1661048d5760405162461bcd60e51b815260206004820152601f60248201527f4c6f74746572793a204e6f7420796574206f70656e20666f722062657473210060448201526064015b60405180910390fd5b60015442106104de5760405162461bcd60e51b815260206004820152601f60248201527f4c6f74746572793a2042657474696e672077696e646f7720636c6f73656421006044820152606401610484565b6000546001600160a01b031633036105435760405162461bcd60e51b815260206004820152602260248201527f4c6f74746572793a204f776e6572206e6f7420616c6c6f77656420746f206265604482015261742160f01b6064820152608401610484565b6007805460018101825560009182527fa66cc928b5edb82af9bd49922954155ab7b0942694bea4ce44661d9a8736c6880180546001600160a01b03191633179055600354600880549192909161059a908490611036565b9091555050600454600d80546000906105b4908490611036565b90915550506005546004546003546001600160a01b03909216916323b872dd91339130916105e191611036565b6040516001600160e01b031960e086901b1681526001600160a01b03938416600482015292909116602483015260448201526064016020604051808303816000875af1158015610635573d6000803e3d6000fd5b505050506040513d601f19601f82011682018060405250810190610659919061104f565b50565b60025460ff166106ae5760405162461bcd60e51b815260206004820152601f60248201527f4c6f74746572793a204e6f7420796574206f70656e20666f72206265747321006044820152606401610484565b600154421161070b5760405162461bcd60e51b815260206004820152602360248201527f4c6f74746572793a2042657474696e672077696e646f77207374696c6c206f70604482015262656e2160e81b6064820152608401610484565b3360009081526006602052604090205460ff16151560011461073f5760405162461bcd60e51b815260040161048490611071565b6007544490156107b9576007805461075790836110b7565b81548110610767576107676110d9565b6000918252602080832090910154600980546001600160a01b0319166001600160a01b039092169182179055600854908352600a909152604082208054919290916107b3908490611036565b90915550505b5060006008556002805460ff19169055565b3360009081526006602052604090205460ff1615156001146107ff5760405162461bcd60e51b815260040161048490611071565b336000908152600f6020526040902055565b3360008181526006602052604090819020805460ff1916600117905560055490516340c10f1960e01b815260048101929092523460248301526001600160a01b0316906340c10f1990604401600060405180830381600087803b15801561087757600080fd5b505af115801561088b573d6000803e3d6000fd5b50505050565b610899610f0b565b6108a36000610f65565b565b6108ad610f0b565b60025460ff16156109005760405162461bcd60e51b815260206004820152601f60248201527f4c6f74746572793a20416c7265616479206f70656e20666f72206265747321006044820152606401610484565b4282116109645760405162461bcd60e51b815260206004820152602c60248201527f4c6f74746572793a20436c6f73696e672074696d65206d75737420626520696e60448201526b20746865206675747572652160a01b6064820152608401610484565b60019182556002805460ff1916909217909155600b55565b3360009081526006602052604090205460ff1615156001146109b05760405162461bcd60e51b815260040161048490611071565b336000908152600f6020526040902054670de0b6b3a7640000906109d490826110ef565b11610a315760405162461bcd60e51b815260206004820152602760248201527f4c6f74746572793a20496e73756666696369656e74206275726e20746f2077696044820152667468647261772160c81b6064820152608401610484565b336000818152600f6020908152604080832080546010909352818420928355839055905490516108fc82150292818181858888f19350505050158015610a7b573d6000803e3d6000fd5b5033600090815260106020526040812055565b610a96610f0b565b66b1a2bc2ec50000600d54670de0b6b3a7640000610ab491906110ef565b11610b155760405162461bcd60e51b815260206004820152602b60248201527f4c6f74746572792c2066656520636f6c6c656374656420746f6f206c6573732060448201526a746f20636f6c6c6563742160a81b6064820152608401610484565b600d8054600e819055600090915560055460405163a9059cbb60e01b815233600482015260248101929092526001600160a01b03169063a9059cbb906044016020604051808303816000875af1158015610b73573d6000803e3d6000fd5b505050506040513d601f19601f82011682018060405250810190610b97919061104f565b506000600e55565b3360009081526006602052604090205460ff161515600114610bd35760405162461bcd60e51b815260040161048490611071565b336000908152600a6020526040902054670de0b6b3a764000090610bf790826110ef565b11610c5a5760405162461bcd60e51b815260206004820152602d60248201527f4c6f74746572793a20496e7375666669656e63742077696e6e696e6720746f6b60448201526c656e7320746f20636c61696d2160981b6064820152608401610484565b600b54811115610d2b5780600d6000828254610c769190611036565b9091555050336000908152600a6020526040902054610c96908290611106565b600c908155336000818152600a6020526040808220919091556005549254905163a9059cbb60e01b8152600481019290925260248201526001600160a01b039091169063a9059cbb906044016020604051808303816000875af1158015610d01573d6000803e3d6000fd5b505050506040513d601f19601f82011682018060405250810190610d25919061104f565b50610e63565b600b54336000908152600a602052604090205411610d845760405162461bcd60e51b815260206004820152601660248201527557696e6e696e67206c657373207468616e206665652160501b6044820152606401610484565b600b54600d6000828254610d989190611036565b9091555050600b54336000908152600a6020526040902054610dba9190611106565b600c55336000818152600a60205260408120819055600554600b546001600160a01b039091169263a9059cbb929091610df291611106565b6040516001600160e01b031960e085901b1681526001600160a01b03909216600483015260248201526044016020604051808303816000875af1158015610e3d573d6000803e3d6000fd5b505050506040513d601f19601f82011682018060405250810190610e61919061104f565b505b506000600c55565b610e73610f0b565b6001600160a01b038116610ed85760405162461bcd60e51b815260206004820152602660248201527f4f776e61626c653a206e6577206f776e657220697320746865207a65726f206160448201526564647265737360d01b6064820152608401610484565b61065981610f65565b60078181548110610ef157600080fd5b6000918252602090912001546001600160a01b0316905081565b6000546001600160a01b031633146108a35760405162461bcd60e51b815260206004820181905260248201527f4f776e61626c653a2063616c6c6572206973206e6f7420746865206f776e65726044820152606401610484565b600080546001600160a01b038381166001600160a01b0319831681178455604051919092169283917f8be0079c531659141344cd1fd0a4f28419497f9722a3daafe3b4186f6b6457e09190a35050565b600060208284031215610fc757600080fd5b81356001600160a01b0381168114610fde57600080fd5b9392505050565b600060208284031215610ff757600080fd5b5035919050565b6000806040838503121561101157600080fd5b50508035926020909101359150565b634e487b7160e01b600052601160045260246000fd5b8082018082111561104957611049611020565b92915050565b60006020828403121561106157600080fd5b81518015158114610fde57600080fd5b60208082526026908201527f4c6f74746572793a20596f7520617265206e6f7420616e2061637469766520706040820152656c617965722160d01b606082015260800190565b6000826110d457634e487b7160e01b600052601260045260246000fd5b500690565b634e487b7160e01b600052603260045260246000fd5b808202811582820484141761104957611049611020565b818103818111156110495761104961102056fea2646970667358221220bd567851b58fac8e87d7cad9c11bda0ed054948a4319d4e61f0774c82e78120f64736f6c6343000811003360806040523480156200001157600080fd5b506040516200107f3803806200107f833981016040819052620000349162000193565b818160036200004483826200028c565b5060046200005382826200028c565b505050620000706200006a6200007860201b60201c565b6200007c565b505062000358565b3390565b600580546001600160a01b038381166001600160a01b0319831681179093556040519116919082907f8be0079c531659141344cd1fd0a4f28419497f9722a3daafe3b4186f6b6457e090600090a35050565b634e487b7160e01b600052604160045260246000fd5b600082601f830112620000f657600080fd5b81516001600160401b0380821115620001135762000113620000ce565b604051601f8301601f19908116603f011681019082821181831017156200013e576200013e620000ce565b816040528381526020925086838588010111156200015b57600080fd5b600091505b838210156200017f578582018301518183018401529082019062000160565b600093810190920192909252949350505050565b60008060408385031215620001a757600080fd5b82516001600160401b0380821115620001bf57600080fd5b620001cd86838701620000e4565b93506020850151915080821115620001e457600080fd5b50620001f385828601620000e4565b9150509250929050565b600181811c908216806200021257607f821691505b6020821081036200023357634e487b7160e01b600052602260045260246000fd5b50919050565b601f8211156200028757600081815260208120601f850160051c81016020861015620002625750805b601f850160051c820191505b8181101562000283578281556001016200026e565b5050505b505050565b81516001600160401b03811115620002a857620002a8620000ce565b620002c081620002b98454620001fd565b8462000239565b602080601f831160018114620002f85760008415620002df5750858301515b600019600386901b1c1916600185901b17855562000283565b600085815260208120601f198616915b82811015620003295788860151825594840194600190910190840162000308565b5085821015620003485787850151600019600388901b60f8161c191681555b5050505050600190811b01905550565b610d1780620003686000396000f3fe608060405234801561001057600080fd5b506004361061010b5760003560e01c806370a08231116100a257806395d89b411161007157806395d89b411461021f578063a457c2d714610227578063a9059cbb1461023a578063dd62ed3e1461024d578063f2fde38b1461026057600080fd5b806370a08231146101c0578063715018a6146101e957806379cc6790146101f15780638da5cb5b1461020457600080fd5b8063313ce567116100de578063313ce56714610176578063395093511461018557806340c10f191461019857806342966c68146101ad57600080fd5b806306fdde0314610110578063095ea7b31461012e57806318160ddd1461015157806323b872dd14610163575b600080fd5b610118610273565b6040516101259190610b2d565b60405180910390f35b61014161013c366004610b97565b610305565b6040519015158152602001610125565b6002545b604051908152602001610125565b610141610171366004610bc1565b61031f565b60405160128152602001610125565b610141610193366004610b97565b610343565b6101ab6101a6366004610b97565b610365565b005b6101ab6101bb366004610bfd565b61037b565b6101556101ce366004610c16565b6001600160a01b031660009081526020819052604090205490565b6101ab610388565b6101ab6101ff366004610b97565b61039c565b6005546040516001600160a01b039091168152602001610125565b6101186103b1565b610141610235366004610b97565b6103c0565b610141610248366004610b97565b610440565b61015561025b366004610c38565b61044e565b6101ab61026e366004610c16565b610479565b60606003805461028290610c6b565b80601f01602080910402602001604051908101604052809291908181526020018280546102ae90610c6b565b80156102fb5780601f106102d0576101008083540402835291602001916102fb565b820191906000526020600020905b8154815290600101906020018083116102de57829003601f168201915b5050505050905090565b6000336103138185856104ef565b60019150505b92915050565b60003361032d858285610614565b61033885858561068e565b506001949350505050565b600033610313818585610356838361044e565b6103609190610cbb565b6104ef565b61036d61085c565b61037782826108b6565b5050565b6103853382610995565b50565b61039061085c565b61039a6000610adb565b565b6103a7823383610614565b6103778282610995565b60606004805461028290610c6b565b600033816103ce828661044e565b9050838110156104335760405162461bcd60e51b815260206004820152602560248201527f45524332303a2064656372656173656420616c6c6f77616e63652062656c6f77604482015264207a65726f60d81b60648201526084015b60405180910390fd5b61033882868684036104ef565b60003361031381858561068e565b6001600160a01b03918216600090815260016020908152604080832093909416825291909152205490565b61048161085c565b6001600160a01b0381166104e65760405162461bcd60e51b815260206004820152602660248201527f4f776e61626c653a206e6577206f776e657220697320746865207a65726f206160448201526564647265737360d01b606482015260840161042a565b61038581610adb565b6001600160a01b0383166105515760405162461bcd60e51b8152602060048201526024808201527f45524332303a20617070726f76652066726f6d20746865207a65726f206164646044820152637265737360e01b606482015260840161042a565b6001600160a01b0382166105b25760405162461bcd60e51b815260206004820152602260248201527f45524332303a20617070726f766520746f20746865207a65726f206164647265604482015261737360f01b606482015260840161042a565b6001600160a01b0383811660008181526001602090815260408083209487168084529482529182902085905590518481527f8c5be1e5ebec7d5bd14f71427d1e84f3dd0314c0f7b2291e5b200ac8c7c3b92591015b60405180910390a3505050565b6000610620848461044e565b90506000198114610688578181101561067b5760405162461bcd60e51b815260206004820152601d60248201527f45524332303a20696e73756666696369656e7420616c6c6f77616e6365000000604482015260640161042a565b61068884848484036104ef565b50505050565b6001600160a01b0383166106f25760405162461bcd60e51b815260206004820152602560248201527f45524332303a207472616e736665722066726f6d20746865207a65726f206164604482015264647265737360d81b606482015260840161042a565b6001600160a01b0382166107545760405162461bcd60e51b815260206004820152602360248201527f45524332303a207472616e7366657220746f20746865207a65726f206164647260448201526265737360e81b606482015260840161042a565b6001600160a01b038316600090815260208190526040902054818110156107cc5760405162461bcd60e51b815260206004820152602660248201527f45524332303a207472616e7366657220616d6f756e7420657863656564732062604482015265616c616e636560d01b606482015260840161042a565b6001600160a01b03808516600090815260208190526040808220858503905591851681529081208054849290610803908490610cbb565b92505081905550826001600160a01b0316846001600160a01b03167fddf252ad1be2c89b69c2b068fc378daa952ba7f163c4a11628f55a4df523b3ef8460405161084f91815260200190565b60405180910390a3610688565b6005546001600160a01b0316331461039a5760405162461bcd60e51b815260206004820181905260248201527f4f776e61626c653a2063616c6c6572206973206e6f7420746865206f776e6572604482015260640161042a565b6001600160a01b03821661090c5760405162461bcd60e51b815260206004820152601f60248201527f45524332303a206d696e7420746f20746865207a65726f206164647265737300604482015260640161042a565b806002600082825461091e9190610cbb565b90915550506001600160a01b0382166000908152602081905260408120805483929061094b908490610cbb565b90915550506040518181526001600160a01b038316906000907fddf252ad1be2c89b69c2b068fc378daa952ba7f163c4a11628f55a4df523b3ef9060200160405180910390a35050565b6001600160a01b0382166109f55760405162461bcd60e51b815260206004820152602160248201527f45524332303a206275726e2066726f6d20746865207a65726f206164647265736044820152607360f81b606482015260840161042a565b6001600160a01b03821660009081526020819052604090205481811015610a695760405162461bcd60e51b815260206004820152602260248201527f45524332303a206275726e20616d6f756e7420657863656564732062616c616e604482015261636560f01b606482015260840161042a565b6001600160a01b0383166000908152602081905260408120838303905560028054849290610a98908490610cce565b90915550506040518281526000906001600160a01b038516907fddf252ad1be2c89b69c2b068fc378daa952ba7f163c4a11628f55a4df523b3ef90602001610607565b600580546001600160a01b038381166001600160a01b0319831681179093556040519116919082907f8be0079c531659141344cd1fd0a4f28419497f9722a3daafe3b4186f6b6457e090600090a35050565b600060208083528351808285015260005b81811015610b5a57858101830151858201604001528201610b3e565b506000604082860101526040601f19601f8301168501019250505092915050565b80356001600160a01b0381168114610b9257600080fd5b919050565b60008060408385031215610baa57600080fd5b610bb383610b7b565b946020939093013593505050565b600080600060608486031215610bd657600080fd5b610bdf84610b7b565b9250610bed60208501610b7b565b9150604084013590509250925092565b600060208284031215610c0f57600080fd5b5035919050565b600060208284031215610c2857600080fd5b610c3182610b7b565b9392505050565b60008060408385031215610c4b57600080fd5b610c5483610b7b565b9150610c6260208401610b7b565b90509250929050565b600181811c90821680610c7f57607f821691505b602082108103610c9f57634e487b7160e01b600052602260045260246000fd5b50919050565b634e487b7160e01b600052601160045260246000fd5b8082018082111561031957610319610ca5565b8181038181111561031957610319610ca556fea2646970667358221220fdb7f14b389124710cb1bf4bc450ba4e6899f32bc86bd011b55caa71be51294264736f6c63430008110033",
  "linkReferences": {},
  "deployedLinkReferences": {}
}